:020000040000FA
:020000001F29B6
:08000800EF001F08A0001F0E0D
:10001000A0051F08A1001F0EA1051F08A2001F0EAA
:10002000A2051F08A3001F0EA3051F08A4001F0E92
:10003000A4051F08A5001F0EA5051F08A6001F0E7A
:10004000A6051F08A7001F0EA7051F08A8001F0E62
:10005000A8051F08A9001F0EA9051F08AA001F0E4A
:10006000AA051F08AB001F0EAB051F08AC001F0E32
:10007000AC051F08AD001F0EAD051F08AE001F0E1A
:10008000AE051F08AF001F0EAF051F08B0001F0E02
:10009000B0051F08B1001F0EB1051F08B2001F0EEA
:1000A000B2051F08B3001F0EB3051F08B4001F0ED2
:1000B000B4051F08B5001F0EB5051F08B6001F0EBA
:1000C000B6051F08B7001F0EB7051F08B8001F0EA2
:1000D000B8051F08B9001F0EB9051F08BA001F0E8A
:1000E000BA051F08BB001F0EBB051F08BC001F0E72
:1000F000BC051F08BD001F0EBD051F08BE001F0E5A
:10010000BE051F08BF001F0EBF051F08C0001F0E41
:10011000C0051F08C1001F0EC1051F08C2001F0E29
:10012000C2051F08C3001F0EC3051F08C4001F0E11
:10013000C4051F08C5001F0EC5051F08C6001F0EF9
:10014000C6051F08C7001F0EC7051F08C8001F0EE1
:10015000C8051F08C9001F0EC9051F08CA001F0EC9
:10016000CA051F08CB001F0ECB051F08CC001F0EB1
:10017000CC051F08CD001F0ECD051F08CE001F0E99
:10018000CE051F08CF001F0ECF051F08D0001F0E81
:10019000D0051F08D1001F0ED1051F08D2001F0E69
:1001A000D2051F08D3001F0ED3051F08D4001F0E51
:1001B000D4051F08D5001F0ED5051F08D6001F0E39
:1001C000D6051F08D7001F0ED7051F08D8001F0E21
:1001D000D8051F08D9001F0ED9051F08DA001F0E09
:1001E000DA051F08DB001F0EDB051F08DC001F0EF1
:1001F000DC051F08DD001F0EDD051F08DE001F0ED9
:10020000DE051F08DF001F0EDF050C1370146F08DA
:1002100009004A342D3446342034473441345234B2
:100220004E344934453452342C3420343234303452
:10023000303439342D343234303431343534640090
:100240000030850086008316EF308500D2308600AE
:100250008113112383128130061F0A3083169900FF
:10026000243098008312903098001C309F000000CA
:100270001F08831640308C00831240308B00F00141
:10028000F701F801EA228B17640070184C29F01866
:1002900053298C1AAC2944298B13051270109B2208
:1002A0008B17051644298B130512F010701F7B293C
:1002B000721D7C29F2186C29721C73297308031DA6
:1002C0007C29701D692970117908F3000430F2004F
:1002D0007C29F01F7B297C29F01B7C29701A7C2942
:1002E000F01972147B297308F9007015F01F7B292F
:1002F0000530F200F3012A2A7308F6007208F500AF
:10030000F81F8A29760DF50D750D1E392038F50078
:10031000F6179429F60DF50D760D750D1F39203859
:10032000F500F60CF61376177708750203199E2967
:100330007508F70097221123061BA2297608F800FA
:1003400097221123061BA929861600000000000031
:1003500086128B17051644298B1305121A08F40010
:10036000981CB529181200001816061FC629740813
:100370000D3C0319BF2974080A3C031DC6297608E1
:100380000319C529F8009722F601272AF41BCF2963
:10039000741BCF29F41E272A7408F500272A740835
:1003A000F80075080319D629F700F5017808F3005D
:1003B0007708F200F81FE129F30DF20CF20CF30CB0
:1003C000E729F30DF30DF20CF30CF20CF30C7208A9
:1003D0000739F2007208043C031D242A7308F4391B
:1003E000943C031D1F2A7308943C031DFB297013C2
:1003F000F013F0111C2A7308953C031D012A701696
:100400000D2A7308963C031D082A7017F0171C2A42
:100410007308973C031D112A70127017F011F01326
:100420001C2A73089C3C031D172AF0151C2A73080C
:100430009D3C031D1C2AF01178089722272AF01BE7
:10044000242A0530F200F301701F1C2A2A2A8B1778
:10045000051644291F080C137208E4007308E50010
:100460006419442A013086000000000000000830B2
:10047000860000000000000001308600000000003F
:10048000000008308600572A08308600000000006F
:1004900000000130860000000000000008308600E7
:1004A0000000000000000130860000000000000095
:1004B0000030860000000930E200E50DE40D64190B
:1004C0006A2A0000013086000000000000000830A9
:1004D0008600732A0830860000000000000001300A
:1004E000860000000000000000308600E20B5D2A5C
:1004F0000000E50DE40D6419832A00000130860038
:1005000000000830892A0830860000000000000042
:100510000130860000300C1B922A000086008B17E9
:1005200005164429860005200516F01444290C1EE2
:10053000972A99000800203084004030E300E2014F
:10054000E001E0148403840A001BB32A801FB52A4B
:10055000E01CB82A0019C12A801DC52AE01CCA2A3D
:10056000E30BA32AD42AE001AA2AE0016014AA2AF4
:10057000601DBF2A600CE50DE40DE20AE014601571
:10058000AA2AE001E30BA32AD42AE0016014E30BBA
:10059000A32AD42A601DD12A600CE50DE40DE20ADD
:1005A000E0146015E30BA32A62080B3C0319E32A4D
:1005B000861BE92AF01CE92A62080A3C031DE92A85
:1005C0007219E92A6411F01464080739F200650809
:1005D000F3000800FA30F522FA30FF22FA30F52253
:1005E000FA30FF22FA30F5220800F100640005120B
:1005F0000D2305160923F103031DF62A0800F10057
:1006000006236400F103031D002B080011231123AE
:10061000112311231123112311231123112311233A
:0C06200008008330013E031D122B08006F
:02400E00460169
:00000001FF
